{
  "_format": "hh-sol-artifact-1",
  "contractName": "SimpleGroupsMngmt",
  "sourceName": "contracts/SimpleGroupsMngmt.sol",
  "abi": [
    {
      "anonymous": false,
      "inputs": [
        {
          "indexed": false,
          "internalType": "int32",
          "name": "groupId",
          "type": "int32"
        },
        {
          "indexed": false,
          "internalType": "address",
          "name": "owner",
          "type": "address"
        },
        {
          "indexed": false,
          "internalType": "address[]",
          "name": "members",
          "type": "address[]"
        }
      ],
      "name": "GroupCreated",
      "type": "event"
    },
    {
      "anonymous": false,
      "inputs": [
        {
          "indexed": false,
          "internalType": "int32",
          "name": "groupId",
          "type": "int32"
        },
        {
          "indexed": false,
          "internalType": "address",
          "name": "member",
          "type": "address"
        }
      ],
      "name": "MemberAdded",
      "type": "event"
    },
    {
      "anonymous": false,
      "inputs": [
        {
          "indexed": false,
          "internalType": "int32",
          "name": "groupId",
          "type": "int32"
        },
        {
          "indexed": false,
          "internalType": "address",
          "name": "member",
          "type": "address"
        }
      ],
      "name": "MemberRemoved",
      "type": "event"
    },
    {
      "inputs": [
        {
          "internalType": "int32",
          "name": "groupId",
          "type": "int32"
        },
        {
          "internalType": "address",
          "name": "member",
          "type": "address"
        }
      ],
      "name": "addMember",
      "outputs": [],
      "stateMutability": "nonpayable",
      "type": "function"
    },
    {
      "inputs": [
        {
          "internalType": "address[]",
          "name": "members",
          "type": "address[]"
        }
      ],
      "name": "createGroup",
      "outputs": [
        {
          "internalType": "int32",
          "name": "",
          "type": "int32"
        }
      ],
      "stateMutability": "nonpayable",
      "type": "function"
    },
    {
      "inputs": [
        {
          "internalType": "int32",
          "name": "",
          "type": "int32"
        }
      ],
      "name": "groups",
      "outputs": [
        {
          "internalType": "address",
          "name": "owner",
          "type": "address"
        }
      ],
      "stateMutability": "view",
      "type": "function"
    },
    {
      "inputs": [
        {
          "internalType": "int32",
          "name": "groupId",
          "type": "int32"
        },
        {
          "internalType": "address",
          "name": "account",
          "type": "address"
        }
      ],
      "name": "isMember",
      "outputs": [
        {
          "internalType": "bool",
          "name": "",
          "type": "bool"
        }
      ],
      "stateMutability": "view",
      "type": "function"
    },
    {
      "inputs": [],
      "name": "nextGroupId",
      "outputs": [
        {
          "internalType": "int32",
          "name": "",
          "type": "int32"
        }
      ],
      "stateMutability": "view",
      "type": "function"
    },
    {
      "inputs": [
        {
          "internalType": "int32",
          "name": "groupId",
          "type": "int32"
        },
        {
          "internalType": "address",
          "name": "member",
          "type": "address"
        }
      ],
      "name": "removeMember",
      "outputs": [],
      "stateMutability": "nonpayable",
      "type": "function"
    }
  ],
  "bytecode": "0x60806040526001805463ffffffff19168117905534801561001f57600080fd5b506108e58061002f6000396000f3fe608060405234801561001057600080fd5b50600436106100625760003560e01c806310f9adab146100675780635eda7a761461007c57806384dc3886146100a15780639dba3cfa146100e25780639ff3a1e014610105578063bd5f148914610118575b600080fd5b61007a61007536600461065c565b61012b565b005b6001546100899060030b81565b60405160039190910b81526020015b60405180910390f35b6100ca6100af36600461068f565b6000602081905290815260409020546001600160a01b031681565b6040516001600160a01b039091168152602001610098565b6100f56100f036600461065c565b610367565b6040519015158152602001610098565b61007a61011336600461065c565b6103f7565b6100896101263660046106c0565b6104e5565b600382900b600090815260208190526040902080546001600160a01b031633146101a85760405162461bcd60e51b8152602060048201526024808201527f4f6e6c792067726f7570206f776e65722063616e2072656d6f7665206d656d6260448201526332b9399760e11b60648201526084015b60405180910390fd5b60005b600182015463ffffffff8216101561031e57826001600160a01b0316826001018263ffffffff16815481106101e2576101e2610785565b6000918252602090912001546001600160a01b03160361030c5760018083018054909161020e916107b1565b8154811061021e5761021e610785565b6000918252602090912001546001830180546001600160a01b039092169163ffffffff841690811061025257610252610785565b9060005260206000200160006101000a8154816001600160a01b0302191690836001600160a01b0316021790555081600101805480610293576102936107c4565b600082815260209020810160001990810180546001600160a01b03191690550190556040517ff1e6c8118c0a15ce55411a4c7aca85689ac8da69e2eb29ba11be313ef339ba1d906102fe908690869060039290920b82526001600160a01b0316602082015260400190565b60405180910390a150505050565b80610316816107da565b9150506101ab565b5060405162461bcd60e51b815260206004820152601a60248201527f4d656d626572206e6f7420666f756e6420696e2067726f75702e000000000000604482015260640161019f565b600382900b6000908152602081905260408120815b600182015463ffffffff821610156103ea57836001600160a01b0316826001018263ffffffff16815481106103b3576103b3610785565b6000918252602090912001546001600160a01b0316036103d8576001925050506103f1565b806103e2816107da565b91505061037c565b5060009150505b92915050565b600382900b600090815260208190526040902080546001600160a01b0316331461046d5760405162461bcd60e51b815260206004820152602160248201527f4f6e6c792067726f7570206f776e65722063616e20616464206d656d626572736044820152601760f91b606482015260840161019f565b600181810180549182018155600090815260209081902090910180546001600160a01b0319166001600160a01b03851690811790915560408051600387900b8152928301919091527f9bf1c208969b1acda29fbdff4e7e2e9eeafa5bcd14d29800a0a4ef7dc8d99d38910160405180910390a1505050565b6001805460030b600090815260208181526040822080546001600160a01b0319163317815584519293909261052092918401918601906105b4565b506001546040517fc9102f798e8a171fd387d8d9093b476fc5ee3c26a9ac6ff04606129b3e089dce9161055d9160039190910b90339087906107fd565b60405180910390a160018054819060009061057c90839060030b610861565b825463ffffffff9182166101009390930a928302919092021990911617905550600180546105ad919060030b610888565b9392505050565b828054828255906000526020600020908101928215610609579160200282015b8281111561060957825182546001600160a01b0319166001600160a01b039091161782556020909201916001909101906105d4565b50610615929150610619565b5090565b5b80821115610615576000815560010161061a565b8035600381900b811461064057600080fd5b919050565b80356001600160a01b038116811461064057600080fd5b6000806040838503121561066f57600080fd5b6106788361062e565b915061068660208401610645565b90509250929050565b6000602082840312156106a157600080fd5b6105ad8261062e565b634e487b7160e01b600052604160045260246000fd5b600060208083850312156106d357600080fd5b823567ffffffffffffffff808211156106eb57600080fd5b818501915085601f8301126106ff57600080fd5b813581811115610711576107116106aa565b8060051b604051601f19603f83011681018181108582111715610736576107366106aa565b60405291825284820192508381018501918883111561075457600080fd5b938501935b828510156107795761076a85610645565b84529385019392850192610759565b98975050505050505050565b634e487b7160e01b600052603260045260246000fd5b634e487b7160e01b600052601160045260246000fd5b818103818111156103f1576103f161079b565b634e487b7160e01b600052603160045260246000fd5b600063ffffffff8083168181036107f3576107f361079b565b6001019392505050565b6000606082018560030b8352602060018060a01b038087168286015260606040860152828651808552608087019150838801945060005b81811015610852578551841683529484019491840191600101610834565b50909998505050505050505050565b600381810b9083900b01637fffffff8113637fffffff19821217156103f1576103f161079b565b600382810b9082900b03637fffffff198112637fffffff821317156103f1576103f161079b56fea26469706673582212205794de480cbda7c15fae10dbccc29a88f386f1d6e91aadc7eda80e9e0df176b664736f6c63430008120033",
  "linkReferences": {},
  "deployedLinkReferences": {}
}